{
  "_format": "hh-sol-artifact-1",
  "contractName": "NovaTokNFT",
  "sourceName": "contracts/NovaTokNFT.sol",
  "abi": [
    {
      "inputs": [],
      "stateMutability": "nonpayable",
      "type": "constructor"
    },
    {
      "inputs": [
        {
          "internalType": "address",
          "name": "sender",
          "type": "address"
        },
        {
          "internalType": "uint256",
          "name": "tokenId",
          "type": "uint256"
        },
        {
          "internalType": "address",
          "name": "owner",
          "type": "address"
        }
      ],
      "name": "ERC721IncorrectOwner",
      "type": "error"
    },
    {
      "inputs": [
        {
          "internalType": "address",
          "name": "operator",
          "type": "address"
        },
        {
          "internalType": "uint256",
          "name": "tokenId",
          "type": "uint256"
        }
      ],
      "name": "ERC721InsufficientApproval",
      "type": "error"
    },
    {
      "inputs": [
        {
          "internalType": "address",
          "name": "approver",
          "type": "address"
        }
      ],
      "name": "ERC721InvalidApprover",
      "type": "error"
    },
    {
      "inputs": [
        {
          "internalType": "address",
          "name": "operator",
          "type": "address"
        }
      ],
      "name": "ERC721InvalidOperator",
      "type": "error"
    },
    {
      "inputs": [
        {
          "internalType": "address",
          "name": "owner",
          "type": "address"
        }
      ],
      "name": "ERC721InvalidOwner",
      "type": "error"
    },
    {
      "inputs": [
        {
          "internalType": "address",
          "name": "receiver",
          "type": "address"
        }
      ],
      "name": "ERC721InvalidReceiver",
      "type": "error"
    },
    {
      "inputs": [
        {
          "internalType": "address",
          "name": "sender",
          "type": "address"
        }
      ],
      "name": "ERC721InvalidSender",
      "type": "error"
    },
    {
      "inputs": [
        {
          "internalType": "uint256",
          "name": "tokenId",
          "type": "uint256"
        }
      ],
      "name": "ERC721NonexistentToken",
      "type": "error"
    },
    {
      "inputs": [
        {
          "internalType": "address",
          "name": "owner",
          "type": "address"
        }
      ],
      "name": "OwnableInvalidOwner",
      "type": "error"
    },
    {
      "inputs": [
        {
          "internalType": "address",
          "name": "account",
          "type": "address"
        }
      ],
      "name": "OwnableUnauthorizedAccount",
      "type": "error"
    },
    {
      "anonymous": false,
      "inputs": [
        {
          "indexed": true,
          "internalType": "address",
          "name": "owner",
          "type": "address"
        },
        {
          "indexed": true,
          "internalType": "address",
          "name": "approved",
          "type": "address"
        },
        {
          "indexed": true,
          "internalType": "uint256",
          "name": "tokenId",
          "type": "uint256"
        }
      ],
      "name": "Approval",
      "type": "event"
    },
    {
      "anonymous": false,
      "inputs": [
        {
          "indexed": true,
          "internalType": "address",
          "name": "owner",
          "type": "address"
        },
        {
          "indexed": true,
          "internalType": "address",
          "name": "operator",
          "type": "address"
        },
        {
          "indexed": false,
          "internalType": "bool",
          "name": "approved",
          "type": "bool"
        }
      ],
      "name": "ApprovalForAll",
      "type": "event"
    },
    {
      "anonymous": false,
      "inputs": [
        {
          "indexed": false,
          "internalType": "uint256",
          "name": "_fromTokenId",
          "type": "uint256"
        },
        {
          "indexed": false,
          "internalType": "uint256",
          "name": "_toTokenId",
          "type": "uint256"
        }
      ],
      "name": "BatchMetadataUpdate",
      "type": "event"
    },
    {
      "anonymous": false,
      "inputs": [
        {
          "indexed": false,
          "internalType": "uint256",
          "name": "_tokenId",
          "type": "uint256"
        }
      ],
      "name": "MetadataUpdate",
      "type": "event"
    },
    {
      "anonymous": false,
      "inputs": [
        {
          "indexed": true,
          "internalType": "address",
          "name": "to",
          "type": "address"
        },
        {
          "indexed": true,
          "internalType": "uint256",
          "name": "tokenId",
          "type": "uint256"
        },
        {
          "indexed": false,
          "internalType": "string",
          "name": "tokenURI",
          "type": "string"
        }
      ],
      "name": "NFTMinted",
      "type": "event"
    },
    {
      "anonymous": false,
      "inputs": [
        {
          "indexed": true,
          "internalType": "address",
          "name": "previousOwner",
          "type": "address"
        },
        {
          "indexed": true,
          "internalType": "address",
          "name": "newOwner",
          "type": "address"
        }
      ],
      "name": "OwnershipTransferred",
      "type": "event"
    },
    {
      "anonymous": false,
      "inputs": [
        {
          "indexed": true,
          "internalType": "address",
          "name": "from",
          "type": "address"
        },
        {
          "indexed": true,
          "internalType": "address",
          "name": "to",
          "type": "address"
        },
        {
          "indexed": true,
          "internalType": "uint256",
          "name": "tokenId",
          "type": "uint256"
        }
      ],
      "name": "Transfer",
      "type": "event"
    },
    {
      "inputs": [
        {
          "internalType": "address",
          "name": "to",
          "type": "address"
        },
        {
          "internalType": "uint256",
          "name": "tokenId",
          "type": "uint256"
        }
      ],
      "name": "approve",
      "outputs": [],
      "stateMutability": "nonpayable",
      "type": "function"
    },
    {
      "inputs": [
        {
          "internalType": "address",
          "name": "owner",
          "type": "address"
        }
      ],
      "name": "balanceOf",
      "outputs": [
        {
          "internalType": "uint256",
          "name": "",
          "type": "uint256"
        }
      ],
      "stateMutability": "view",
      "type": "function"
    },
    {
      "inputs": [
        {
          "internalType": "uint256",
          "name": "tokenId",
          "type": "uint256"
        }
      ],
      "name": "getApproved",
      "outputs": [
        {
          "internalType": "address",
          "name": "",
          "type": "address"
        }
      ],
      "stateMutability": "view",
      "type": "function"
    },
    {
      "inputs": [
        {
          "internalType": "address",
          "name": "owner",
          "type": "address"
        },
        {
          "internalType": "address",
          "name": "operator",
          "type": "address"
        }
      ],
      "name": "isApprovedForAll",
      "outputs": [
        {
          "internalType": "bool",
          "name": "",
          "type": "bool"
        }
      ],
      "stateMutability": "view",
      "type": "function"
    },
    {
      "inputs": [
        {
          "internalType": "string",
          "name": "_tokenURI",
          "type": "string"
        }
      ],
      "name": "mint",
      "outputs": [
        {
          "internalType": "uint256",
          "name": "",
          "type": "uint256"
        }
      ],
      "stateMutability": "nonpayable",
      "type": "function"
    },
    {
      "inputs": [
        {
          "internalType": "address",
          "name": "to",
          "type": "address"
        },
        {
          "internalType": "string",
          "name": "_tokenURI",
          "type": "string"
        }
      ],
      "name": "mintTo",
      "outputs": [
        {
          "internalType": "uint256",
          "name": "",
          "type": "uint256"
        }
      ],
      "stateMutability": "nonpayable",
      "type": "function"
    },
    {
      "inputs": [],
      "name": "name",
      "outputs": [
        {
          "internalType": "string",
          "name": "",
          "type": "string"
        }
      ],
      "stateMutability": "view",
      "type": "function"
    },
    {
      "inputs": [],
      "name": "nextTokenId",
      "outputs": [
        {
          "internalType": "uint256",
          "name": "",
          "type": "uint256"
        }
      ],
      "stateMutability": "view",
      "type": "function"
    },
    {
      "inputs": [],
      "name": "owner",
      "outputs": [
        {
          "internalType": "address",
          "name": "",
          "type": "address"
        }
      ],
      "stateMutability": "view",
      "type": "function"
    },
    {
      "inputs": [
        {
          "internalType": "uint256",
          "name": "tokenId",
          "type": "uint256"
        }
      ],
      "name": "ownerOf",
      "outputs": [
        {
          "internalType": "address",
          "name": "",
          "type": "address"
        }
      ],
      "stateMutability": "view",
      "type": "function"
    },
    {
      "inputs": [],
      "name": "renounceOwnership",
      "outputs": [],
      "stateMutability": "nonpayable",
      "type": "function"
    },
    {
      "inputs": [
        {
          "internalType": "address",
          "name": "from",
          "type": "address"
        },
        {
          "internalType": "address",
          "name": "to",
          "type": "address"
        },
        {
          "internalType": "uint256",
          "name": "tokenId",
          "type": "uint256"
        }
      ],
      "name": "safeTransferFrom",
      "outputs": [],
      "stateMutability": "nonpayable",
      "type": "function"
    },
    {
      "inputs": [
        {
          "internalType": "address",
          "name": "from",
          "type": "address"
        },
        {
          "internalType": "address",
          "name": "to",
          "type": "address"
        },
        {
          "internalType": "uint256",
          "name": "tokenId",
          "type": "uint256"
        },
        {
          "internalType": "bytes",
          "name": "data",
          "type": "bytes"
        }
      ],
      "name": "safeTransferFrom",
      "outputs": [],
      "stateMutability": "nonpayable",
      "type": "function"
    },
    {
      "inputs": [
        {
          "internalType": "address",
          "name": "operator",
          "type": "address"
        },
        {
          "internalType": "bool",
          "name": "approved",
          "type": "bool"
        }
      ],
      "name": "setApprovalForAll",
      "outputs": [],
      "stateMutability": "nonpayable",
      "type": "function"
    },
    {
      "inputs": [
        {
          "internalType": "bytes4",
          "name": "interfaceId",
          "type": "bytes4"
        }
      ],
      "name": "supportsInterface",
      "outputs": [
        {
          "internalType": "bool",
          "name": "",
          "type": "bool"
        }
      ],
      "stateMutability": "view",
      "type": "function"
    },
    {
      "inputs": [],
      "name": "symbol",
      "outputs": [
        {
          "internalType": "string",
          "name": "",
          "type": "string"
        }
      ],
      "stateMutability": "view",
      "type": "function"
    },
    {
      "inputs": [
        {
          "internalType": "uint256",
          "name": "tokenId",
          "type": "uint256"
        }
      ],
      "name": "tokenURI",
      "outputs": [
        {
          "internalType": "string",
          "name": "",
          "type": "string"
        }
      ],
      "stateMutability": "view",
      "type": "function"
    },
    {
      "inputs": [],
      "name": "totalMinted",
      "outputs": [
        {
          "internalType": "uint256",
          "name": "",
          "type": "uint256"
        }
      ],
      "stateMutability": "view",
      "type": "function"
    },
    {
      "inputs": [
        {
          "internalType": "address",
          "name": "from",
          "type": "address"
        },
        {
          "internalType": "address",
          "name": "to",
          "type": "address"
        },
        {
          "internalType": "uint256",
          "name": "tokenId",
          "type": "uint256"
        }
      ],
      "name": "transferFrom",
      "outputs": [],
      "stateMutability": "nonpayable",
      "type": "function"
    },
    {
      "inputs": [
        {
          "internalType": "address",
          "name": "newOwner",
          "type": "address"
        }
      ],
      "name": "transferOwnership",
      "outputs": [],
      "stateMutability": "nonpayable",
      "type": "function"
    }
  ],
  "bytecode": "0x60806040523480156200001157600080fd5b50336040518060400160405280600b81526020016a139bdd98551bdac813919560aa1b815250604051806040016040528060048152602001634e4f564160e01b8152508160009081620000659190620001b4565b506001620000748282620001b4565b5050506001600160a01b038116620000a657604051631e4fbdf760e01b81526000600482015260240160405180910390fd5b620000b181620000bd565b50600160085562000280565b600780546001600160a01b038381166001600160a01b0319831681179093556040519116919082907f8be0079c531659141344cd1fd0a4f28419497f9722a3daafe3b4186f6b6457e090600090a35050565b634e487b7160e01b600052604160045260246000fd5b600181811c908216806200013a57607f821691505b6020821081036200015b57634e487b7160e01b600052602260045260246000fd5b50919050565b601f821115620001af57600081815260208120601f850160051c810160208610156200018a5750805b601f850160051c820191505b81811015620001ab5782815560010162000196565b5050505b505050565b81516001600160401b03811115620001d057620001d06200010f565b620001e881620001e1845462000125565b8462000161565b602080601f831160018114620002205760008415620002075750858301515b600019600386901b1c1916600185901b178555620001ab565b600085815260208120601f198616915b82811015620002515788860151825594840194600190910190840162000230565b5085821015620002705787850151600019600388901b60f8161c191681555b5050505050600190811b01905550565b61158f80620002906000396000f3fe608060405234801561001057600080fd5b506004361061012b5760003560e01c806375794a3c116100ad578063b88d4fde11610071578063b88d4fde1461025e578063c87b56dd14610271578063d85d3d2714610284578063e985e9c514610297578063f2fde38b146102aa57600080fd5b806375794a3c146102225780638da5cb5b1461022a57806395d89b411461023b578063a22cb46514610243578063a2309ff81461025657600080fd5b806323b872dd116100f457806323b872dd146101ce57806342842e0e146101e15780636352211e146101f457806370a0823114610207578063715018a61461021a57600080fd5b806275a3171461013057806301ffc9a71461015657806306fdde0314610179578063081812fc1461018e578063095ea7b3146101b9575b600080fd5b61014361013e3660046110b0565b6102bd565b6040519081526020015b60405180910390f35b610169610164366004611114565b61033d565b604051901515815260200161014d565b610181610362565b60405161014d9190611181565b6101a161019c366004611194565b6103f4565b6040516001600160a01b03909116815260200161014d565b6101cc6101c73660046111ad565b61041d565b005b6101cc6101dc3660046111d7565b61042c565b6101cc6101ef3660046111d7565b6104bc565b6101a1610202366004611194565b6104dc565b610143610215366004611213565b6104e7565b6101cc61052f565b600854610143565b6007546001600160a01b03166101a1565b610181610543565b6101cc61025136600461122e565b610552565b61014361055d565b6101cc61026c36600461126a565b610573565b61018161027f366004611194565b61058b565b6101436102923660046112e6565b61069c565b6101696102a536600461131b565b610710565b6101cc6102b8366004611213565b61073e565b60006102c761077c565b6008805490819060006102d983611364565b91905055506102e884826107a9565b6102f281846107c3565b80846001600160a01b03167fd35bb95e09c04b219e35047ce7b7b300e3384264ef84a40456943dbc0fc17c148560405161032c9190611181565b60405180910390a390505b92915050565b60006001600160e01b03198216632483248360e11b1480610337575061033782610813565b6060600080546103719061137d565b80601f016020809104026020016040519081016040528092919081815260200182805461039d9061137d565b80156103ea5780601f106103bf576101008083540402835291602001916103ea565b820191906000526020600020905b8154815290600101906020018083116103cd57829003601f168201915b5050505050905090565b60006103ff82610863565b506000828152600460205260409020546001600160a01b0316610337565b61042882823361089c565b5050565b6001600160a01b03821661045b57604051633250574960e11b8152600060048201526024015b60405180910390fd5b60006104688383336108a9565b9050836001600160a01b0316816001600160a01b0316146104b6576040516364283d7b60e01b81526001600160a01b0380861660048301526024820184905282166044820152606401610452565b50505050565b6104d783838360405180602001604052806000815250610573565b505050565b600061033782610863565b60006001600160a01b038216610513576040516322718ad960e21b815260006004820152602401610452565b506001600160a01b031660009081526003602052604090205490565b61053761077c565b61054160006109a2565b565b6060600180546103719061137d565b6104283383836109f4565b6000600160085461056e91906113b7565b905090565b61057e84848461042c565b6104b63385858585610a93565b606061059682610863565b50600082815260066020526040812080546105b09061137d565b80601f01602080910402602001604051908101604052809291908181526020018280546105dc9061137d565b80156106295780601f106105fe57610100808354040283529160200191610629565b820191906000526020600020905b81548152906001019060200180831161060c57829003601f168201915b50505050509050600061064760408051602081019091526000815290565b90508051600003610659575092915050565b81511561068b5780826040516020016106739291906113ca565b60405160208183030381529060405292505050919050565b61069484610bbe565b949350505050565b600880546000918190836106af83611364565b91905055506106be33826107a9565b6106c881846107c3565b80336001600160a01b03167fd35bb95e09c04b219e35047ce7b7b300e3384264ef84a40456943dbc0fc17c14856040516107029190611181565b60405180910390a392915050565b6001600160a01b03918216600090815260056020908152604080832093909416825291909152205460ff1690565b61074661077c565b6001600160a01b03811661077057604051631e4fbdf760e01b815260006004820152602401610452565b610779816109a2565b50565b6007546001600160a01b031633146105415760405163118cdaa760e01b8152336004820152602401610452565b610428828260405180602001604052806000815250610c33565b60008281526006602052604090206107db828261143f565b506040518281527ff8e1a15aba9398e019f0b49df1a4fde98ee17ae345cb5f6b5e2c27f5033e8ce79060200160405180910390a15050565b60006001600160e01b031982166380ac58cd60e01b148061084457506001600160e01b03198216635b5e139f60e01b145b8061033757506301ffc9a760e01b6001600160e01b0319831614610337565b6000818152600260205260408120546001600160a01b03168061033757604051637e27328960e01b815260048101849052602401610452565b6104d78383836001610c4b565b6000828152600260205260408120546001600160a01b03908116908316156108d6576108d6818486610d51565b6001600160a01b03811615610914576108f3600085600080610c4b565b6001600160a01b038116600090815260036020526040902080546000190190555b6001600160a01b03851615610943576001600160a01b0385166000908152600360205260409020805460010190555b60008481526002602052604080822080546001600160a01b0319166001600160a01b0389811691821790925591518793918516917fddf252ad1be2c89b69c2b068fc378daa952ba7f163c4a11628f55a4df523b3ef91a4949350505050565b600780546001600160a01b038381166001600160a01b0319831681179093556040519116919082907f8be0079c531659141344cd1fd0a4f28419497f9722a3daafe3b4186f6b6457e090600090a35050565b6001600160a01b038216610a2657604051630b61174360e31b81526001600160a01b0383166004820152602401610452565b6001600160a01b03838116600081815260056020908152604080832094871680845294825291829020805460ff191686151590811790915591519182527f17307eab39ab6107e8899845ad3d59bd9653f200f220920489ca2b5937696c31910160405180910390a3505050565b6001600160a01b0383163b15610bb757604051630a85bd0160e11b81526001600160a01b0384169063150b7a0290610ad59088908890879087906004016114ff565b6020604051808303816000875af1925050508015610b10575060408051601f3d908101601f19168201909252610b0d9181019061153c565b60015b610b79573d808015610b3e576040519150601f19603f3d011682016040523d82523d6000602084013e610b43565b606091505b508051600003610b7157604051633250574960e11b81526001600160a01b0385166004820152602401610452565b805160208201fd5b6001600160e01b03198116630a85bd0160e11b14610bb557604051633250574960e11b81526001600160a01b0385166004820152602401610452565b505b5050505050565b6060610bc982610863565b506000610be160408051602081019091526000815290565b90506000815111610c015760405180602001604052806000815250610c2c565b80610c0b84610db5565b604051602001610c1c9291906113ca565b6040516020818303038152906040525b9392505050565b610c3d8383610e48565b6104d7336000858585610a93565b8080610c5f57506001600160a01b03821615155b15610d21576000610c6f84610863565b90506001600160a01b03831615801590610c9b5750826001600160a01b0316816001600160a01b031614155b8015610cae5750610cac8184610710565b155b15610cd75760405163a9fbf51f60e01b81526001600160a01b0384166004820152602401610452565b8115610d1f5783856001600160a01b0316826001600160a01b03167f8c5be1e5ebec7d5bd14f71427d1e84f3dd0314c0f7b2291e5b200ac8c7c3b92560405160405180910390a45b505b5050600090815260046020526040902080546001600160a01b0319166001600160a01b0392909216919091179055565b610d5c838383610ead565b6104d7576001600160a01b038316610d8a57604051637e27328960e01b815260048101829052602401610452565b60405163177e802f60e01b81526001600160a01b038316600482015260248101829052604401610452565b60606000610dc283610f10565b600101905060008167ffffffffffffffff811115610de257610de2611004565b6040519080825280601f01601f191660200182016040528015610e0c576020820181803683370190505b5090508181016020015b600019016f181899199a1a9b1b9c1cb0b131b232b360811b600a86061a8153600a8504945084610e1657509392505050565b6001600160a01b038216610e7257604051633250574960e11b815260006004820152602401610452565b6000610e80838360006108a9565b90506001600160a01b038116156104d7576040516339e3563760e11b815260006004820152602401610452565b60006001600160a01b038316158015906106945750826001600160a01b0316846001600160a01b03161480610ee75750610ee78484610710565b806106945750506000908152600460205260409020546001600160a01b03908116911614919050565b60008072184f03e93ff9f4daa797ed6e38ed64bf6a1f0160401b8310610f4f5772184f03e93ff9f4daa797ed6e38ed64bf6a1f0160401b830492506040015b6d04ee2d6d415b85acef81000000008310610f7b576d04ee2d6d415b85acef8100000000830492506020015b662386f26fc100008310610f9957662386f26fc10000830492506010015b6305f5e1008310610fb1576305f5e100830492506008015b6127108310610fc557612710830492506004015b60648310610fd7576064830492506002015b600a83106103375760010192915050565b80356001600160a01b0381168114610fff57600080fd5b919050565b634e487b7160e01b600052604160045260246000fd5b600067ffffffffffffffff8084111561103557611035611004565b604051601f8501601f19908116603f0116810190828211818310171561105d5761105d611004565b8160405280935085815286868601111561107657600080fd5b858560208301376000602087830101525050509392505050565b600082601f8301126110a157600080fd5b610c2c8383356020850161101a565b600080604083850312156110c357600080fd5b6110cc83610fe8565b9150602083013567ffffffffffffffff8111156110e857600080fd5b6110f485828601611090565b9150509250929050565b6001600160e01b03198116811461077957600080fd5b60006020828403121561112657600080fd5b8135610c2c816110fe565b60005b8381101561114c578181015183820152602001611134565b50506000910152565b6000815180845261116d816020860160208601611131565b601f01601f19169290920160200192915050565b602081526000610c2c6020830184611155565b6000602082840312156111a657600080fd5b5035919050565b600080604083850312156111c057600080fd5b6111c983610fe8565b946020939093013593505050565b6000806000606084860312156111ec57600080fd5b6111f584610fe8565b925061120360208501610fe8565b9150604084013590509250925092565b60006020828403121561122557600080fd5b610c2c82610fe8565b6000806040838503121561124157600080fd5b61124a83610fe8565b91506020830135801515811461125f57600080fd5b809150509250929050565b6000806000806080858703121561128057600080fd5b61128985610fe8565b935061129760208601610fe8565b925060408501359150606085013567ffffffffffffffff8111156112ba57600080fd5b8501601f810187136112cb57600080fd5b6112da8782356020840161101a565b91505092959194509250565b6000602082840312156112f857600080fd5b813567ffffffffffffffff81111561130f57600080fd5b61069484828501611090565b6000806040838503121561132e57600080fd5b61133783610fe8565b915061134560208401610fe8565b90509250929050565b634e487b7160e01b600052601160045260246000fd5b6000600182016113765761137661134e565b5060010190565b600181811c9082168061139157607f821691505b6020821081036113b157634e487b7160e01b600052602260045260246000fd5b50919050565b818103818111156103375761033761134e565b600083516113dc818460208801611131565b8351908301906113f0818360208801611131565b01949350505050565b601f8211156104d757600081815260208120601f850160051c810160208610156114205750805b601f850160051c820191505b81811015610bb55782815560010161142c565b815167ffffffffffffffff81111561145957611459611004565b61146d81611467845461137d565b846113f9565b602080601f8311600181146114a2576000841561148a5750858301515b600019600386901b1c1916600185901b178555610bb5565b600085815260208120601f198616915b828110156114d1578886015182559484019460019091019084016114b2565b50858210156114ef5787850151600019600388901b60f8161c191681555b5050505050600190811b01905550565b6001600160a01b038581168252841660208201526040810183905260806060820181905260009061153290830184611155565b9695505050505050565b60006020828403121561154e57600080fd5b8151610c2c816110fe56fea264697066735822122078819f4470fe1d3fa126e7078eda0bfe44dbd5037825f8f57d8473e16b217e6a64736f6c63430008140033",
  "linkReferences": {},
  "deployedLinkReferences": {}
}